{
  "contractName": "Company",
  "abi": [
    {
      "constant": true,
      "inputs": [],
      "name": "developer",
      "outputs": [
        {
          "name": "",
          "type": "address"
        }
      ],
      "payable": false,
      "stateMutability": "view",
      "type": "function"
    },
    {
      "constant": true,
      "inputs": [
        {
          "name": "",
          "type": "uint256"
        }
      ],
      "name": "developers",
      "outputs": [
        {
          "name": "",
          "type": "address"
        }
      ],
      "payable": false,
      "stateMutability": "view",
      "type": "function"
    },
    {
      "inputs": [
        {
          "name": "_developer",
          "type": "address"
        },
        {
          "name": "_developers",
          "type": "address[]"
        }
      ],
      "payable": false,
      "stateMutability": "nonpayable",
      "type": "constructor"
    },
    {
      "anonymous": false,
      "inputs": [
        {
          "indexed": false,
          "name": "_dev",
          "type": "address"
        },
        {
          "indexed": false,
          "name": "_skill",
          "type": "string"
        },
        {
          "indexed": false,
          "name": "_rating",
          "type": "uint256"
        }
      ],
      "name": "GotRating",
      "type": "event"
    },
    {
      "anonymous": false,
      "inputs": [
        {
          "indexed": false,
          "name": "count",
          "type": "uint256"
        }
      ],
      "name": "Debug",
      "type": "event"
    },
    {
      "constant": false,
      "inputs": [
        {
          "name": "_skill",
          "type": "string"
        }
      ],
      "name": "getTotalRating",
      "outputs": [
        {
          "name": "_totalRating",
          "type": "uint256"
        }
      ],
      "payable": false,
      "stateMutability": "nonpayable",
      "type": "function"
    }
  ],
  "bytecode": "0x608060405234801561001057600080fd5b506040516105b43803806105b483398101604052805160208083015160028054600160a060020a031916600160a060020a0385161790559092018051919290916100609160019190840190610068565b5050506100f4565b8280548282559060005260206000209081019282156100bd579160200282015b828111156100bd5782518254600160a060020a031916600160a060020a03909116178255602090920191600190910190610088565b506100c99291506100cd565b5090565b6100f191905b808211156100c9578054600160a060020a03191681556001016100d3565b90565b6104b1806101036000396000f3006080604052600436106100565763ffffffff7c01000000000000000000000000000000000000000000000000000000006000350416635ef05026811461005b578063ca4b208b146100c6578063eff25cd6146100f7575b600080fd5b34801561006757600080fd5b506040805160206004803580820135601f81018490048402850184019095528484526100b494369492936024939284019190819084018382808284375094975061010f9650505050505050565b60408051918252519081900360200190f35b3480156100d257600080fd5b506100db61042e565b60408051600160a060020a039092168252519081900360200190f35b34801561010357600080fd5b506100db60043561043d565b6000606060008060008051602061046683398151915283516040518082815260200191505060405180910390a160008054600190810190915580546040805160208084028201810190925282815292919083018282801561019957602002820191906000526020600020905b8154600160a060020a0316815260019091019060200180831161017b575b5050505050925060008051602061046683398151915283516040518082815260200191505060405180910390a160015460408051918252516000805160206104668339815191529181900360200190a1600091505b8251821015610405576002548351600160a060020a039091169063deb03b019085908590811061021a57fe5b90602001906020020151876040518363ffffffff167c01000000000000000000000000000000000000000000000000000000000281526004018083600160a060020a0316600160a060020a0316815260200180602001828103825283818151815260200191508051906020019080838360005b838110156102a557818101518382015260200161028d565b50505050905090810190601f1680156102d25780820380516001836020036101000a031916815260200191505b5093505050506040805180830381600087803b1580156102f157600080fd5b505af1158015610305573d6000803e3d6000fd5b505050506040513d604081101561031b57600080fd5b506020015183519091507f57cffa5dbc30bfe6723a183ee77100ef88f8029968d39e0fd6042131d40427229084908490811061035357fe5b9060200190602002015186836040518084600160a060020a0316600160a060020a0316815260200180602001838152602001828103825284818151815260200191508051906020019080838360005b838110156103ba5781810151838201526020016103a2565b50505050905090810190601f1680156103e75780820380516001836020036101000a031916815260200191505b5094505050505060405180910390a1928301926001909101906101ee565b6040805185815290516000805160206104668339815191529181900360200190a1505050919050565b600254600160a060020a031681565b600180548290811061044b57fe5b600091825260209091200154600160a060020a031690508156008a36f5a234186d446e36a7df36ace663a05a580d9bea2dd899c6dd76a075d5faa165627a7a7230582026bcadfb43cca1faf12337c07caee16093d758503ddf7fa0188afc237a36d1710029",
  "source": "// pragma solidity ^0.4.23;\n\n// import \"./Developer.sol\";\n\n// contract Company {\n    \n//     address[] public developers;\n//     Developer public developer;\n    \n//     constructor(Developer _developer, address[] _developers) public {\n//         developer = _developer;\n//         developers = _developers;\n//     }\n    \n//     function getTotalRating(string _skill) public view returns (uint _totalRating) {\n//         address[] storage _developers = developers;\n//         for (uint _devIdx = 0; _devIdx < _developers.length; ++_devIdx) {\n//             uint _rating;\n//             (, _rating) = developer.skillDetails(_developers[_devIdx], _skill);\n//             _totalRating += _rating;\n//         }\n//     }\n    \n// }\n\npragma solidity ^0.4.23;\n\nimport \"./Developer.sol\";\n\ncontract Company {\n    \n    event GotRating(address _dev, string _skill, uint _rating);\n    event Debug(uint count);\n    \n    uint callCounter;\n    \n    address[] public developers;\n    Developer public developer;\n    \n    constructor(Developer _developer, address[] _developers) public {\n        developer = _developer;\n        developers = _developers;\n    }\n    \n    function getTotalRating(string _skill) public returns (uint _totalRating) {\n        emit Debug(_developers.length);\n        ++callCounter;\n        address[] memory _developers = developers;\n        emit Debug(_developers.length);\n        emit Debug(developers.length);\n        for (uint _devIdx = 0; _devIdx < _developers.length; ++_devIdx) {\n            uint _rating;\n            (, _rating) = developer.skillDetails(_developers[_devIdx], _skill);\n            emit GotRating(_developers[_devIdx], _skill, _rating);\n            _totalRating += _rating;\n        }\n        \n        emit Debug(_totalRating);\n    }\n    \n}",
  "sourcePath": "/Users/alesanro/Documents/Projects/Blockchain/remixd-try-contracts/contracts/Company.sol",
  "compiler": {
    "name": "solc",
    "version": "0.4.23+commit.124ca40d.Emscripten.clang"
  },
  "schemaVersion": "2.0.0",
  "updatedAt": "2018-05-16T15:07:23.742Z"
}