{
  "contractName": "Company",
  "abi": [
    {
      "constant": true,
      "inputs": [],
      "name": "ceo",
      "outputs": [
        {
          "name": "",
          "type": "address"
        }
      ],
      "payable": false,
      "stateMutability": "view",
      "type": "function"
    },
    {
      "constant": true,
      "inputs": [],
      "name": "developersCount",
      "outputs": [
        {
          "name": "",
          "type": "uint256"
        }
      ],
      "payable": false,
      "stateMutability": "view",
      "type": "function"
    },
    {
      "constant": true,
      "inputs": [
        {
          "name": "",
          "type": "address"
        }
      ],
      "name": "developerToIdx",
      "outputs": [
        {
          "name": "",
          "type": "uint256"
        }
      ],
      "payable": false,
      "stateMutability": "view",
      "type": "function"
    },
    {
      "constant": true,
      "inputs": [],
      "name": "developersRegistry",
      "outputs": [
        {
          "name": "",
          "type": "address"
        }
      ],
      "payable": false,
      "stateMutability": "view",
      "type": "function"
    },
    {
      "constant": true,
      "inputs": [
        {
          "name": "",
          "type": "uint256"
        }
      ],
      "name": "developers",
      "outputs": [
        {
          "name": "",
          "type": "address"
        }
      ],
      "payable": false,
      "stateMutability": "view",
      "type": "function"
    },
    {
      "inputs": [
        {
          "name": "_developersRegistry",
          "type": "address"
        },
        {
          "name": "_developers",
          "type": "address[]"
        }
      ],
      "payable": false,
      "stateMutability": "nonpayable",
      "type": "constructor"
    },
    {
      "payable": true,
      "stateMutability": "payable",
      "type": "fallback"
    },
    {
      "anonymous": false,
      "inputs": [
        {
          "indexed": false,
          "name": "newCEO",
          "type": "address"
        }
      ],
      "name": "CEOUpdated",
      "type": "event"
    },
    {
      "anonymous": false,
      "inputs": [
        {
          "indexed": false,
          "name": "developer",
          "type": "address"
        }
      ],
      "name": "DeveloperHired",
      "type": "event"
    },
    {
      "anonymous": false,
      "inputs": [
        {
          "indexed": false,
          "name": "developer",
          "type": "address"
        }
      ],
      "name": "DeveloperFired",
      "type": "event"
    },
    {
      "constant": false,
      "inputs": [
        {
          "name": "_newCEO",
          "type": "address"
        }
      ],
      "name": "transferCEOChair",
      "outputs": [
        {
          "name": "",
          "type": "bool"
        }
      ],
      "payable": false,
      "stateMutability": "nonpayable",
      "type": "function"
    },
    {
      "constant": false,
      "inputs": [
        {
          "name": "_developer",
          "type": "address"
        }
      ],
      "name": "hireDeveloper",
      "outputs": [
        {
          "name": "",
          "type": "bool"
        }
      ],
      "payable": false,
      "stateMutability": "nonpayable",
      "type": "function"
    },
    {
      "constant": false,
      "inputs": [
        {
          "name": "_developer",
          "type": "address"
        }
      ],
      "name": "fireDeveloper",
      "outputs": [
        {
          "name": "",
          "type": "bool"
        }
      ],
      "payable": false,
      "stateMutability": "nonpayable",
      "type": "function"
    },
    {
      "constant": true,
      "inputs": [
        {
          "name": "_skill",
          "type": "string"
        }
      ],
      "name": "getTotalRating",
      "outputs": [
        {
          "name": "_totalRating",
          "type": "uint256"
        }
      ],
      "payable": false,
      "stateMutability": "view",
      "type": "function"
    }
  ],
  "bytecode": "0x608060405234801561001057600080fd5b50604051610832380380610832833981016040528051602082015160008054600160a060020a03338116600160a060020a031992831617835560018054918616919092161790559192019080805b83518210156100ef57838281518110151561007557fe5b6020908102909101810151600160a060020a0381166000908152600490925260409091205490915015156100e45760019290920160008181526003602090815260408083208054600160a060020a031916600160a060020a038816908117909155835260049091529020819055915b81600101915061005e565b5050600255505061072d806101056000396000f3006080604052600436106100985763ffffffff7c01000000000000000000000000000000000000000000000000000000006000350416633ac1880181146100ff5780633ffa9095146101345780635ef050261461015557806385a5156b146101c0578063908921fc146101e1578063b4897e1714610212578063dc7c9b3614610227578063ec32c75814610248578063eff25cd61461025d575b604080517f08c379a000000000000000000000000000000000000000000000000000000000815260206004820152601160248201527f43616e6e6f742061636365707420455448000000000000000000000000000000604482015290519081900360640190fd5b34801561010b57600080fd5b50610120600160a060020a0360043516610275565b604080519115158252519081900360200190f35b34801561014057600080fd5b50610120600160a060020a03600435166103b8565b34801561016157600080fd5b506040805160206004803580820135601f81018490048402850184019095528484526101ae9436949293602493928401919081908401838280828437509497506104ae9650505050505050565b60408051918252519081900360200190f35b3480156101cc57600080fd5b50610120600160a060020a03600435166105e2565b3480156101ed57600080fd5b506101f66106b0565b60408051600160a060020a039092168252519081900360200190f35b34801561021e57600080fd5b506101ae6106bf565b34801561023357600080fd5b506101ae600160a060020a03600435166106c5565b34801561025457600080fd5b506101f66106d7565b34801561026957600080fd5b506101f66004356106e6565b6000805481908190819033600160a060020a03908116911614156103b057600160a060020a0385166000908152600460205260409020548590156103ae57600160a060020a038616600090815260046020526040902054600254909450925082841461032d57600083815260036020908152604080832054878452818420805473ffffffffffffffffffffffffffffffffffffffff1916600160a060020a039092169182179055808452600490925290912085905591505b6000838152600360209081526040808320805473ffffffffffffffffffffffffffffffffffffffff19169055600160a060020a038916808452600483528184209390935560001986016002558051928352517f7a7cdaa04672aa884657cdbfb569bb5db69f912072dd30f77963a6beae27c5959281900390910190a1600194505b505b505050919050565b6000805433600160a060020a03908116911614156104a957600160a060020a038216151561044757604080517f08c379a000000000000000000000000000000000000000000000000000000000815260206004820152601660248201527f53686f756c64206265207265616c206164647265737300000000000000000000604482015290519081900360640190fd5b60008054600160a060020a03841673ffffffffffffffffffffffffffffffffffffffff19909116811790915560408051918252517f83430a5ceb5107ce76c0ebe77c43cdc5ddbd9d2269f5c7fe175933cd3d3b2ad89181900360200190a15060015b919050565b6002546000906001825b8282116103b05760015460008381526003602090815260408083205481517fdeb03b01000000000000000000000000000000000000000000000000000000008152600160a060020a0391821660048201818152602483019485528c5160448401528c51939097169663deb03b019691958d95919491936064019290860191908190849084905b8381101561055657818101518382015260200161053e565b50505050905090810190601f1680156105835780820380516001836020036101000a031916815260200191505b5093505050506040805180830381600087803b1580156105a257600080fd5b505af11580156105b6573d6000803e3d6000fd5b505050506040513d60408110156105cc57600080fd5b50602001519384019360019092019190506104b8565b60008054819033600160a060020a03908116911614156106aa57600160a060020a038316600090815260046020526040902054839015156106a857600280546001016000818152600360209081526040808320805473ffffffffffffffffffffffffffffffffffffffff1916600160a060020a038b16908117909155808452600483529281902084905593839055835191825292519194507f1da0a0424f5931491c020f17e2e0a711ee15ec0dbd2c771792ee776c1d65222f92908290030190a1600192505b505b50919050565b600054600160a060020a031681565b60025481565b60046020526000908152604090205481565b600154600160a060020a031681565b600360205260009081526040902054600160a060020a0316815600a165627a7a72305820bb62f84c99a9bdb646b94380d0e27e2eedfe3ed1aa85baebca680993f9b862eb0029",
  "source": "pragma solidity ^0.4.23;\n\n\nimport \"./DevelopersRegistry.sol\";\n\n\ncontract Company {\n\n    event CEOUpdated(address newCEO);\n    event DeveloperHired(address developer);\n    event DeveloperFired(address developer);\n\n    address public ceo;\n\n    DevelopersRegistry public developersRegistry;\n\n    uint public developersCount;\n    mapping(uint => address) public developers;\n    mapping(address => uint) public developerToIdx;\n\n    modifier onlyCEO {\n        if (msg.sender == ceo) {\n            _;\n        }\n    }\n\n    modifier onlyNotHired(address _developer) {\n        if (developerToIdx[_developer] == 0) {\n            _;\n        }\n    }\n\n    modifier onlyHired(address _developer) {\n        if (developerToIdx[_developer] != 0) {\n            _;\n        }\n    }\n    \n    constructor(DevelopersRegistry _developersRegistry, address[] _developers) public {\n        ceo = msg.sender;\n        developersRegistry = _developersRegistry;\n        uint _counter;\n        for (uint _devIdx = 0; _devIdx < _developers.length; ++_devIdx) {\n            address _developer = _developers[_devIdx];\n            if (developerToIdx[_developer] == 0) {\n                _counter += 1;\n                developers[_counter] = _developer;\n                developerToIdx[_developer] = _counter;\n            }\n        }\n\n        developersCount = _counter;\n    }\n\n    function transferCEOChair(address _newCEO) onlyCEO external returns (bool) {\n        require(_newCEO != 0x0, \"Should be real address\");\n        ceo = _newCEO;\n        \n        emit CEOUpdated(_newCEO);\n        return true;\n    }\n\n    function hireDeveloper(address _developer) \n    onlyCEO \n    onlyNotHired(_developer)\n    external \n    returns (bool) \n    {\n        uint _counter = developersCount + 1;\n        developers[_counter] = _developer;\n        developerToIdx[_developer] = _counter;\n        developersCount = _counter;\n\n        emit DeveloperHired(_developer);\n        return true;\n    }\n\n    function fireDeveloper(address _developer) \n    onlyCEO \n    onlyHired(_developer)\n    external \n    returns (bool) \n    {\n        uint _developerIdx = developerToIdx[_developer];\n        uint _counter = developersCount;\n        if (_developerIdx != _counter) {\n            address _lastDeveloper = developers[_counter];\n            developers[_developerIdx] = _lastDeveloper;\n            developerToIdx[_lastDeveloper] = _developerIdx;\n        }\n\n        delete developers[_counter];\n        delete developerToIdx[_developer];\n\n        developersCount = _counter - 1;\n\n        emit DeveloperFired(_developer);\n        return true;\n    }\n    \n    function getTotalRating(string _skill) \n    public \n    view \n    returns (uint _totalRating) \n    {\n        uint _counter = developersCount;\n        for (uint _devIdx = 1; _devIdx <= _counter; ++_devIdx) {\n            uint _rating;\n            (, _rating) = developersRegistry.skillDetails(developers[_devIdx], _skill);\n            _totalRating += _rating;\n        }\n    }\n\n    function () external payable {\n        revert(\"Cannot accept ETH\");\n    }\n}\n",
  "sourcePath": "/Users/alesanro/Documents/Projects/Blockchain/remixd-try-contracts/contracts/Company.sol",
  "compiler": {
    "name": "solc",
    "version": "0.4.23+commit.124ca40d.Emscripten.clang"
  },
  "schemaVersion": "2.0.0",
  "updatedAt": "2018-05-16T16:50:38.049Z"
}