{
  "contractName": "Developer",
  "abi": [
    {
      "inputs": [
        {
          "name": "_wallet",
          "type": "address"
        }
      ],
      "payable": false,
      "stateMutability": "nonpayable",
      "type": "constructor"
    },
    {
      "payable": true,
      "stateMutability": "payable",
      "type": "fallback"
    },
    {
      "anonymous": false,
      "inputs": [
        {
          "indexed": false,
          "name": "developer",
          "type": "address"
        },
        {
          "indexed": false,
          "name": "skill",
          "type": "string"
        },
        {
          "indexed": false,
          "name": "added",
          "type": "uint256"
        }
      ],
      "name": "SkillImproved",
      "type": "event"
    },
    {
      "constant": false,
      "inputs": [
        {
          "name": "_skill",
          "type": "string"
        }
      ],
      "name": "improveSkill",
      "outputs": [],
      "payable": true,
      "stateMutability": "payable",
      "type": "function"
    },
    {
      "constant": true,
      "inputs": [
        {
          "name": "_dev",
          "type": "address"
        },
        {
          "name": "_skill",
          "type": "string"
        }
      ],
      "name": "skillDetails",
      "outputs": [
        {
          "name": "_value",
          "type": "uint256"
        },
        {
          "name": "_rating",
          "type": "uint256"
        }
      ],
      "payable": false,
      "stateMutability": "view",
      "type": "function"
    }
  ],
  "bytecode": "0x608060405234801561001057600080fd5b506040516020806104738339810160405251600160a060020a038116151561003757600080fd5b60008054600160a060020a03909216600160a060020a031990921691909117905561040c806100676000396000f30060806040526004361061004b5763ffffffff7c010000000000000000000000000000000000000000000000000000000060003504166388e74c9b81146100b2578063deb03b01146100c7575b604080517f08c379a000000000000000000000000000000000000000000000000000000000815260206004820152601160248201527f43616e6e6f742061636365707420455448000000000000000000000000000000604482015290519081900360640190fd5b6100c56004803560248101910135610147565b005b3480156100d357600080fd5b5060408051602060046024803582810135601f810185900485028601850190965285855261012e958335600160a060020a03169536956044949193909101919081908401838280828437509497506103219650505050505050565b6040805192835260208301919091528051918290030190f35b61014f6103ce565b600034116101e457604080517f08c379a000000000000000000000000000000000000000000000000000000000815260206004820152602f60248201527f53686f756c642073656e6420736f6d65206d6f6e657920666f7220696d70726f60448201527f76696e6720796f757220736b696c6c0000000000000000000000000000000000606482015290519081900360840190fd5b600160a060020a03331660009081526001602052604090819020905184908490808383808284379091019485525050604080519384900360209081018520858201835254808652600160a060020a033316600090815260019092529082902091519495503401939092508691508590808383808284379091019485525050604051928390036020018320939093555060008054600160a060020a031692503480156108fc02929091818181858888f193505050501580156102a9573d6000803e3d6000fd5b507f10cf1a20dc6b5d26f952ddd42eb6ecc3d235ad8f08b55dbf003ea6e52339ff11338484346040518085600160a060020a0316600160a060020a03168152602001806020018381526020018281038252858582818152602001925080828437604051920182900397509095505050505050a1505050565b60008061032c6103ce565b6001600086600160a060020a0316600160a060020a03168152602001908152602001600020846040518082805190602001908083835b602083106103815780518252601f199092019160209182019101610362565b51815160209384036101000a600019018019909216911617905292019485525060408051948590038201852091850190525492839052509096662386f26fc1000088049650945050505050565b604080516020810190915260008152905600a165627a7a723058206e37d50b0bd68a822692691cf7934a567bffa88d2111eb89d5b3175f97b123c40029",
  "source": "pragma solidity ^0.4.23;\n\ncontract Developer {\n    \n    event SkillImproved(address developer, string skill, uint added);\n    \n    struct SkillDetails {\n        uint value;\n    }\n    \n    address wallet;\n    mapping(address => mapping(string => SkillDetails)) skills;\n    \n    constructor(address _wallet) public {\n        require(_wallet != 0x0);\n        wallet = _wallet;\n    }\n    \n    function improveSkill(string _skill) external payable {\n        require(msg.value > 0, \"Should send some money for improving your skill\");\n        \n        SkillDetails memory _details = skills[msg.sender][_skill];\n        skills[msg.sender][_skill].value = _details.value + msg.value;\n        \n        wallet.transfer(msg.value);\n        \n        emit SkillImproved(msg.sender, _skill, msg.value);\n    }\n    \n    function skillDetails(address _dev, string _skill) public view returns (uint _value, uint _rating) {\n        SkillDetails memory _details = skills[_dev][_skill];\n        return (_details.value, _details.value / 10**16);\n    }\n\n    \n    function () external payable {\n        revert(\"Cannot accept ETH\");\n    }\n}",
  "sourcePath": "/Users/alesanro/Documents/Projects/Blockchain/remixd-try-contracts/contracts/Developer.sol",
  "compiler": {
    "name": "solc",
    "version": "0.4.23+commit.124ca40d.Emscripten.clang"
  },
  "schemaVersion": "2.0.0",
  "updatedAt": "2018-05-15T15:51:51.699Z"
}